:100000000C9446000C9465000C9465000C946500FB
:100010000C9465000C9465000C9465000C946500CC
:100020000C9465000C9465000C9465000C946500BC
:100030000C9465000C94DE000C9465000C94650033
:100040000C9465000C9465000C9465000C9465009C
:100050000C9465000C9465000C9465000C9465008C
:100060000C9465000C9465000C9465000C9465007C
:100070000C9465000C9465000C9465000C9465006C
:100080000C9465000C9465000C94650011241FBE4F
:10009000CFEFD0E4DEBFCDBF11E0A0E0B1E0EEE0F5
:1000A000F6E000E00BBF02C007900D92A231B1074D
:1000B000D9F721E0A2E1B1E001C01D92A232B2075E
:1000C000E1F70E949B020C9405030C940000CF936F
:1000D000DF9300D01F92CDB7DEB789837B836A831D
:1000E00089818A3031F48A819B81BC018DE00E9434
:1000F000670080EC90E0FC018081882F90E08072A6
:100100009927892BB1F386EC90E02981FC012083AB
:1001100080E090E00F900F900F90DF91CF910895C5
:10012000CF93DF93CDB7DEB781E890E02BE0FC0101
:10013000208388E890E02DE730E0FC0131832083C4
:100140008FE690E022E0FC01208384E890E0FC014F
:100150001182108280910E0190910F01A0911001E7
:10016000B09111018093130190931401A093150194
:10017000B09316018FE590E02FE530E0F901208182
:100180002068FC0120830000DF91CF910895CF9378
:10019000DF93CDB7DEB781E890E0FC01108200006C
:1001A000DF91CF910895CF93DF93CDB7DEB781E094
:1001B000809312010000DF91CF9108951F920F925A
:1001C00000905F000F92112400905B000F922F931C
:1001D0003F934F935F936F937F938F939F93AF93CF
:1001E000BF93EF93FF93CF93DF93CDB7DEB78091AB
:1001F000130190911401A0911501B091160101977E
:10020000A109B1098093130190931401A0931501E2
:10021000B09316018091130190911401A0911501E2
:10022000B0911601892B8A2B8B2B91F40E94D3005D
:1002300080910E0190910F01A0911001B0911101D8
:100240008093130190931401A0931501B0931601AC
:100250000000DF91CF91FF91EF91BF91AF919F91FE
:100260008F917F916F915F914F913F912F910F905F
:1002700000925B000F9000925F000F901F90189506
:10028000CF93DF9300D000D0CDB7DEB769837A83F8
:100290008B839C8389819A81AB81BC8180930E0181
:1002A00090930F01A0931001B093110180910E0162
:1002B00090910F01A0911001B09111018093130151
:1002C00090931401A0931501B093160100000F90B4
:1002D0000F900F900F90DF91CF910895CF93DF9300
:1002E0001F92CDB7DEB780E290E0FC01808180955F
:1002F000847089838091190190911A018130910550
:1003000069F08130910518F00297C9F029C081E0A9
:1003100090E090931A018093190122C0898188236B
:1003200039F082E090E090931A018093190118C08F
:1003300081E090E090931A018093190111C08981A6
:10034000882339F082E090E090931A01809319019C
:1003500006C081E090E090931A018093190100009B
:100360008091190190911A018130910549F08130F5
:10037000910518F0029739F00DC010921C010AC0C7
:1003800010921C0107C080911C01809580718093A0
:100390001C01000000000F90DF91CF910895CF93D2
:1003A000DF93CDB7DEB7809120019091210181309C
:1003B000910581F08130910530F08230910589F00E
:1003C0000397B1F01BC081E090E0909321018093EE
:1003D000200115C082E090E09093210180932001DC
:1003E0000EC083E090E0909321018093200107C02C
:1003F00081E090E0909321018093200100008091A2
:100400002001909121018130910561F081309105A9
:1004100030F08230910551F0039761F00EC01092D8
:100420001B010CC081E080931B0108C082E0809317
:100430001B0104C084E080931B0100000000DF91D9
:10044000CF910895CF93DF93CDB7DEB78091170199
:10045000909118018130910569F08130910518F073
:10046000029779F015C081E090E090931801809395
:1004700017010EC082E090E090931801809317015D
:1004800007C081E090E0909318018093170100006D
:1004900080911701909118018130910549F08130C8
:1004A000910518F0029741F00AC010921D0107C093
:1004B00088E080931D0103C010921D010000000020
:1004C000DF91CF910895CF93DF93CDB7DEB78091C1
:1004D0001E0190911F01009719F0019741F00EC085
:1004E00081E090E090931F0180931E0107C081E09E
:1004F00090E090931F0180931E01000080911E01E7
:1005000090911F01009791F0019709F010C085E2CA
:1005100090E030911B0120911D01232B20952F701D
:1005200030911C01232BFC01208301C0000000003E
:10053000DF91CF910895CF93DF9300D000D0CDB756
:10054000DEB784E290E02FEFFC01208385E290E0AB
:10055000FC01108281E290E0FC01108282E290E0D6
:100560002FEFFC01208362E070E080E090E00E94C9
:1005700040010E94900085E290E0FC011082109200
:100580001B0110921D0110921C0186E990E09A83D4
:10059000898384EF91E09C838B83109221011092D8
:1005A0002001109218011092170110921F01109251
:1005B0001E0110921A011092190189819A818639BF
:1005C000910521F40E94CF011A8219828B819C81AE
:1005D000843F914021F40E9422021C821B820E94CF
:1005E0006E010E94630289819A8101969A838983B0
:1005F0008B819C8101969C838B83000080911201EA
:0E0600008823E1F310921201D8CFF894FFCFB7
:10060E000000000200000000670000000000010072
:02061E000000DA
:00000001FF
