:100000000C9446000C9465000C9465000C946500FB
:100010000C9465000C9465000C9465000C946500CC
:100020000C9465000C9465000C9465000C946500BC
:100030000C9465000C94DE000C9465000C94650033
:100040000C9465000C9465000C9465000C9465009C
:100050000C9465000C9465000C9465000C9465008C
:100060000C9465000C9465000C9465000C9465007C
:100070000C9465000C9465000C9465000C9465006C
:100080000C9465000C9465000C94650011241FBE4F
:10009000CFEFD0E4DEBFCDBF11E0A0E0B1E0E2E5FC
:1000A000F7E000E00BBF02C007900D92A231B1074C
:1000B000D9F721E0A2E1B1E001C01D92A932B20757
:1000C000E1F70E9434030C94A7030C940000CF9333
:1000D000DF9300D01F92CDB7DEB789837B836A831D
:1000E00089818A3031F48A819B81BC018DE00E9434
:1000F000670080EC90E0FC018081882F90E08072A6
:100100009927892BB1F386EC90E02981FC012083AB
:1001100080E090E00F900F900F90DF91CF910895C5
:10012000CF93DF93CDB7DEB781E890E02BE0FC0101
:10013000208388E890E02DE730E0FC0131832083C4
:100140008FE690E022E0FC01208384E890E0FC014F
:100150001182108280910E0190910F01A0911001E7
:10016000B09111018093130190931401A093150194
:10017000B09316018FE590E02FE530E0F901208182
:100180002068FC0120830000DF91CF910895CF9378
:10019000DF93CDB7DEB781E890E0FC01108200006C
:1001A000DF91CF910895CF93DF93CDB7DEB781E094
:1001B000809312010000DF91CF9108951F920F925A
:1001C00000905F000F92112400905B000F922F931C
:1001D0003F934F935F936F937F938F939F93AF93CF
:1001E000BF93EF93FF93CF93DF93CDB7DEB78091AB
:1001F000130190911401A0911501B091160101977E
:10020000A109B1098093130190931401A0931501E2
:10021000B09316018091130190911401A0911501E2
:10022000B0911601892B8A2B8B2B91F40E94D3005D
:1002300080910E0190910F01A0911001B0911101D8
:100240008093130190931401A0931501B0931601AC
:100250000000DF91CF91FF91EF91BF91AF919F91FE
:100260008F917F916F915F914F913F912F910F905F
:1002700000925B000F9000925F000F901F90189506
:10028000CF93DF9300D000D0CDB7DEB769837A83F8
:100290008B839C8389819A81AB81BC8180930E0181
:1002A00090930F01A0931001B093110180910E0162
:1002B00090910F01A0911001B09111018093130151
:1002C00090931401A0931501B093160100000F90B4
:1002D0000F900F900F90DF91CF910895CF93DF9300
:1002E0001F92CDB7DEB780E290E0FC01808180955F
:1002F0008470898380911E0190911F018130910546
:10030000A9F08130910518F0029709F139C01092D7
:100310001701109218011092190110921A0181E030
:1003200090E090931F0180931E012AC08981882349
:1003300039F082E090E090931F0180931E0120C06D
:1003400081E090E090931F0180931E0119C0898184
:10035000882339F082E090E090931F0180931E0182
:100360000EC01092170110921801109219011092EC
:100370001A0181E090E090931F0180931E0100001C
:1003800080911E0190911F018130910549F08130CB
:10039000910518F0029739F03BC01092230138C044
:1003A0001092230135C080911B01282F30E040E0DE
:1003B00050E08091170190911801A0911901B0911E
:1003C0001A01281739074A075B0771F48091230146
:1003D000809580718093230110921701109218016B
:1003E0001092190110921A01809117019091180131
:1003F000A0911901B0911A010196A11DB11D809320
:10040000170190931801A0931901B0931A010000ED
:1004100000000F90DF91CF910895CF93DF93CDB778
:10042000DEB780912701909128018130910581F0FC
:100430008130910530F08230910589F00397B1F059
:100440001BC081E090E0909328018093270115C0A4
:1004500082E090E090932801809327010EC083E012
:1004600090E0909328018093270107C081E090E0FD
:10047000909328018093270100008091270190919B
:1004800028018130910561F08130910530F0823092
:10049000910551F0039761F00EC0109220010CC03D
:1004A00081E08093200108C082E08093200104C095
:1004B00084E08093200100000000DF91CF91089537
:1004C000CF93DF93CDB7DEB780911C0190911D01D2
:1004D0008130910569F08130910518F0029779F02B
:1004E00015C081E090E090931D0180931C010EC027
:1004F00082E090E090931D0180931C0107C081E091
:1005000090E090931D0180931C01000080911C01DC
:1005100090911D018130910549F08130910518F0CD
:10052000029741F00AC01092240107C088E080932E
:10053000240103C01092240100000000DF91CF913C
:100540000895CF93DF93CDB7DEB7809125019091C9
:100550002601009719F0019741F00EC081E090E06C
:10056000909326018093250107C081E090E090934D
:10057000260180932501000080912501909126019C
:10058000009791F0019709F010C085E290E030915A
:10059000200120912401232B20952F7030912301DD
:1005A000232BFC01208301C000000000DF91CF91CC
:1005B0000895CF93DF931F92CDB7DEB780E290E02E
:1005C000FC018081809583708983809121019091C5
:1005D00022018130910569F08130910518F0029770
:1005E00069F13DC081E090E0909322018093210168
:1005F00036C08981813061F480911B0181508093E4
:100600001B0182E090E0909322018093210127C09A
:100610008981823061F480911B018F5F80931B017F
:1006200082E090E0909322018093210118C081E044
:1006300090E0909322018093210111C08981882349
:1006400039F481E090E0909322018093210106C06B
:1006500082E090E09093220180932101000000004D
:100660000F90DF91CF910895CF93DF9300D000D00A
:10067000CDB7DEB784E290E02FEFFC01208385E266
:1006800090E0FC01108281E290E0FC01108282E2A5
:1006900090E02FEFFC01208361E070E080E090E0CB
:1006A0000E9440010E94900085E290E0FC011082CF
:1006B00010922001109224011092230182E0809375
:1006C0001B018CE291E09A83898388EE93E09C83FE
:1006D0008B83109228011092270110921D01109215
:1006E0001C01109226011092250110921F011092F8
:1006F0001E01109222011092210189819A818C326F
:10070000914021F40E940D021A8219828B819C81F2
:10071000883E934021F40E9460021C821B820E944A
:10072000D9020E946E010E94A10289819A810196DC
:100730009A8389838B819C8101969C838B830000A3
:10074000809112018823E1F310921201D6CFF89420
:02075000FFCFD9
:10075200000000020000000067000000000001002D
:02076200000095
:00000001FF
